:020000040000FA
:100000000C9462000C948A000C948A000C948A0070
:100010000C948A000C948A000C948A000C948A0038
:100020000C948A000C948A000C948A000C948A0028
:100030000C948A000C948A000C948A000C948A0018
:100040000C94F6040C948A000C9466050C944005FC
:100050000C948A000C948A000C948A000C948A00F8
:100060000C9498050C948A000000000024002700DE
:100070002A0000000000250028002B0000000000DE
:1000800023002600290004040404040404040202DA
:100090000202020203030303030301020408102007
:1000A0004080010204081020010204081020000012
:1000B0000008000201000003040700000000000027
:1000C0000000B70611241FBECFEFD8E0DEBFCDBFC2
:1000D00023E0A0E6B1E001C01D92A632B207E1F72D
:1000E00011E0A0E0B1E0ECE1F5E102C005900D9275
:1000F000A036B107D9F710E0C2E6D0E004C02197DE
:10010000FE010E94860AC136D107C9F70E94EE0798
:100110000C948C0A0C940000833081F028F4813018
:1001200099F08230A9F008958730A9F08830C9F09D
:100130008430B1F4809180008F7D03C08091800075
:100140008F7780938000089584B58F7784BD08955C
:1001500084B58F7DFBCF8091B0008F778093B00006
:1001600008958091B0008F7DF9CFCF93DF93282F32
:1001700030E0F901E255FF4F8491F901E656FF4F57
:10018000D491F901EA57FF4FC491CC23A1F081111A
:100190000E948C00EC2FF0E0EE0FFF1FE458FF4FA1
:1001A000A591B491EC91ED2381E090E009F480E019
:1001B000DF91CF91089580E090E0FACF1F93CF9325
:1001C000DF93282F30E0F901E255FF4F8491F901C8
:1001D000E656FF4FD491F901EA57FF4FC491CC2363
:1001E000A9F0162F81110E948C00EC2FF0E0EE0F89
:1001F000FF1FEE58FF4FA591B4918FB7F894EC9183
:10020000111108C0D095DE23DC938FBFDF91CF9111
:100210001F910895DE2BF8CFCF93DF9390E0FC0180
:10022000E656FF4F24918A579F4FFC018491882303
:10023000D1F090E0880F991FFC01E859FF4FA5917C
:10024000B491FC01EE58FF4FC591D49161110EC0DD
:100250009FB7F8948C91E22FE0958E238C932881A0
:10026000E223E8839FBFDF91CF9108958FB7F89481
:10027000EC91E22BEC938FBFF6CF3FB7F8948091CF
:100280001B0290911C02A0911D02B0911E0226B586
:10029000A89B05C02F3F19F00196A11DB11D3FBFBE
:1002A000BA2FA92F982F8827BC01CD01620F711D8D
:1002B000811D911D42E0660F771F881F991F4A9587
:1002C000D1F708958F929F92AF92BF92CF92DF9213
:1002D000EF92FF926B017C010E943D014B015C019A
:1002E000C114D104E104F104B9F00E943D01681980
:1002F00079098A099B09683E73408105910580F35D
:1003000021E0C21AD108E108F10888EE880E83E0E6
:10031000981EA11CB11CE4CFFF90EF90DF90CF900E
:10032000BF90AF909F908F90089508950895AF92D9
:10033000BF92CF92DF92EF92FF920F931F93CF93D2
:10034000DF936C017B018B01040F151FEB015E0134
:10035000AE18BF08C017D10759F06991D601ED91C9
:10036000FC910190F081E02DC6010995892B79F768
:10037000C501DF91CF911F910F91FF90EF90DF901A
:10038000CF90BF90AF900895FC01538D448D252FE1
:1003900030E0842F90E0821B930B541710F0CF961F
:1003A000089501970895FC01918D828D981761F051
:1003B000A28DAE0FBF2FB11D5D968C91928D9F5F68
:1003C0009F73928F90E008958FEF9FEF0895FC0147
:1003D000918D828D981731F0828DE80FF11D858DFA
:1003E00090E008958FEF9FEF0895FC01918D228D8D
:1003F000892F90E0805C9F4F821B91098F73992712
:1004000008958FE192E00E94F50121E0892B09F423
:1004100020E0822F089580E090E0892B29F00E944F
:10042000010281110C9400000895FC01A48DA80F15
:10043000B92FB11DA35ABF4F2C91848D90E0019626
:100440008F739927848FA689B7892C93A089B18946
:100450008C91837080648C93938D848D981306C0E7
:100460000288F389E02D80818F7D80830895EF924B
:10047000FF920F931F93CF93DF93EC0181E0888F5E
:100480009B8D8C8D98131AC0E889F989808185FF2E
:1004900015C09FB7F894EE89FF896083E889F989D0
:1004A00080818370806480839FBF81E090E0DF91D2
:1004B000CF911F910F91FF90EF900895F62E0B8D25
:1004C00010E00F5F1F4F0F731127E02E8C8D8E11E0
:1004D0000CC00FB607FCFACFE889F989808185FF47
:1004E000F5CFCE010E941502F1CFEB8DEC0FFD2F61
:1004F000F11DE35AFF4FF0829FB7F8940B8FEA8902
:10050000FB8980818062CFCFCF93DF93EC01888D10
:100510008823B9F0AA89BB89E889F9898C9185FD7E
:1005200003C0808186FD0DC00FB607FCF7CF8C910C
:1005300085FFF2CF808185FFEDCFCE010E941502AD
:10054000E9CFDF91CF9108952091C801260F33277D
:10055000331F21323105ECF42091EC01FC0190E0D5
:1005600080E0243069F082E00895A091C8012191D3
:10057000AC0148555E4FA40FB52FB11D2C930196C9
:10058000861798F38091C801680F6093C80180E0D6
:10059000089581E008951092EC0181E08093EE01CE
:1005A0001092ED0161E082E10E94DE0061E083E1F2
:1005B0000E94DE00E9EBF0E080818E7F8083808105
:1005C0008D7F808388E48093B80085E48093BC00AD
:1005D0000895CF93DF9391E09093A7018823B9F01A
:1005E000C091B800D091BA008091BC008A7B809302
:1005F000BC0060E082E10E94DE0060E083E10E94D6
:10060000DE000E94CB02D093BA00C093B800DF9105
:10061000CF9108950895E091190280911802E8178A
:1006200030F4F0E0EE57FE4F808190E008958FEFB8
:100630009FEF089590911902809118022FEF3FEFDC
:10064000981748F4E92FF0E0EE57FE4F208130E094
:100650009F5F90931902C9010895809118029091AB
:100660001902891B990B0895CF92DF92EF92FF92A6
:100670000F931F93CF93DF937C01CB018A012091CD
:100680008101222389F0EB016B01C40ED51ECC152C
:10069000DD0569F06991D701ED91FC910190F08140
:1006A000E02DC7010995F3CF642F0E94A402C80171
:1006B000DF91CF911F910F91FF90EF90DF90CF903E
:1006C0000895CF93DF931F92CDB7DEB76983209152
:1006D00081012223F9F020911602203258F021E006
:1006E00030E0FC013383228390E080E00F90DF91C3
:1006F000CF91089580911702E82FF0E0EF59FE4F57
:10070000998190838F5F809317028093160281E016
:1007100090E0ECCF61E0CE0101960E94A402F7CFF9
:10072000CF92DF92EF92FF920F931F93CF93DF93BD
:10073000FC01C48121E020938101C09360011092EB
:100740001702109216028385682B8CEB92E00E94B0
:100750006103D0911602D13208F092C00E943D018F
:100760006B017C018091EC01811165C082E0809376
:10077000EC0181E08093EE018FEF8093EB0110920A
:100780001002D0930F02A1E6B1E0EFEEF1E080E0BD
:10079000D81385C01092110280911102CC0FC82B82
:1007A000C09311028091ED01813009F07CC010925C
:1007B000ED010E943D016B017C018091110280934B
:1007C000BB008091A3019091A401A091A501B091DB
:1007D000A601892B8A2B8B2B99F00E943D01009159
:1007E000A3011091A4012091A5013091A6016C19DB
:1007F0007D098E099F090617170728073907E0F1B9
:100800008091BC0083FDD9CF85EC8093BC000E9411
:100810003D016B017C018091EC01823009F445C0FF
:100820008091EB018F3F61F18091EB01803241F1CA
:100830008091EB0125C08091A3019091A401A0912A
:10084000A501B091A601892B8A2B8B2B09F48ACFA5
:100850000E943D010091A3011091A4012091A501E6
:100860003091A6016C197D098E099F09061717079B
:100870002807390708F076CF8091A2010E94E9028B
:10088000109217021092160210928101DF91CF91FF
:100890001F910F91FF90EF90DF90CF9008959D9161
:1008A00091938F5F75CF85EEB0CF8091A30190912A
:1008B000A401A091A501B091A601892B8A2B8B2BB5
:1008C00009F4A9CF0E943D010091A3011091A40158
:1008D0002091A5013091A6016C197D098E099F090F
:1008E000061717072807390708F095CFC5CF0895D1
:1008F00090E080E008950F931F93CF938C01C62F53
:100900000E9490036C2F6460C8010E9490036C2FBA
:100910006B7FC8010E94900383EC90E00197F1F790
:10092000CF911F910F9108950F931F93CF93DF9352
:100930008C01D62FC42F607F642B0E947B0480E142
:10094000D89FB00111246C2BC801DF91CF911F916A
:100950000F910C947B0441E00E94940481E090E0AC
:100960000895FC0101900020E9F73197AF01481B81
:10097000590BBC018FE192E00C94970185ED8093B7
:10098000BC008091A3019091A401A091A501B09118
:10099000A6010796A11DB11D23E0B695A7959795D1
:1009A00087952A95D1F72091BC0024FD03C01092B1
:1009B000EC0108954091A3015091A4016091A5011B
:1009C0007091A601452B462B472B69F30097A10593
:1009D000B10541F02AE22A95F1F700C00197A1097B
:1009E000B109E1CF8091A2010C94E9021F920F920C
:1009F0000FB60F9211242F933F938F939F93AF9332
:100A0000BF938091C8029091C902A091CA02B0918F
:100A1000CB0230911A0223E0230F2D3758F50196AF
:100A2000A11DB11D20931A028093C8029093C902A0
:100A3000A093CA02B093CB0280911B0290911C023A
:100A4000A0911D02B0911E020196A11DB11D8093BF
:100A50001B0290931C02A0931D02B0931E02BF9133
:100A6000AF919F918F913F912F910F900FBE0F905B
:100A70001F90189526E8230F0296A11DB11DD2CF15
:100A80001F920F920FB60F9211242F933F934F9303
:100A90005F936F937F938F939F93AF93BF93EF93E6
:100AA000FF938FE192E00E941502FF91EF91BF91B9
:100AB000AF919F918F917F916F915F914F913F91F6
:100AC0002F910F900FBE0F901F9018951F920F92AD
:100AD0000FB60F9211242F938F939F93EF93FF9351
:100AE000E0912F02F09130028081E0913502F09187
:100AF000360282FD1BC09081809138028F5F8F7318
:100B000020913902821741F0E0913802F0E0E15E75
:100B1000FD4F958F80933802FF91EF919F918F91B8
:100B20002F910F900FBE0F901F9018958081F4CFDA
:100B30001F920F920FB60F9211242F933F934F9352
:100B40005F936F937F938F939F93AF93BF93EF9335
:100B5000FF938091B900887F803609F44AC0F0F590
:100B6000883209F4A7C018F5803109F49BC0B8F4A5
:100B7000882309F4F9C0883009F494C0FF91EF91FB
:100B8000BF91AF919F918F917F916F915F914F91A5
:100B90003F912F910F900FBE0F901F9018958831A5
:100BA00009F488C0803251F78093EB0114C080347F
:100BB00009F49DC040F48033B9F38833F9F680938B
:100BC000EB0185ECB0C0803509F485C0883509F4A7
:100BD00096C0883499F60E94BE04D0CF883909F4B3
:100BE0008CC038F5883729F050F4883611F08037FA
:100BF00029F683E08093EC011092EA0157C088380F
:100C000009F47BC0803919F0803809F0B7CF8091A2
:100C1000EA01803208F071C0E091EA0181E08E0FB4
:100C20008093EA018091BB00F0E0E653FE4F8083A1
:100C30003DC0803B39F0E0F4803A09F479C0883A4D
:100C400009F09CCF84E08093EC011092C9011092CE
:100C5000C801E0911402F091150209958091C80134
:100C600081110FC081E08093C8011092A80109C0D2
:100C7000803C09F4A6CF883C09F4A3CF883B09F057
:100C80007DCFE091C90181E08E0F8093C901F0E032
:100C9000E855FE4F80818093BB009091C9018091FF
:100CA000C80129C0809111028093BB0085EC80931C
:100CB000BC0064CF9091100280910F02981758F5F4
:100CC000E091100281E08E0F80931002F0E0E1517C
:100CD000FE4F8081E9CFE091100281E08E0F80937A
:100CE00010028091BB00F0E0E151FE4F80839091B3
:100CF000100280910F029817C8F285E8D8CFE091D2
:100D0000100281E08E0F809310028091BB00F0E012
:100D1000E151FE4F80838091EE0181115CCF81E033
:100D20008093ED0184EA8093BC001092EC0126CF01
:100D300085EC8093BC001092EC018091EA01803236
:100D400030F4E091EA01F0E0E653FE4F108260914A
:100D5000EA0170E0E0911202F09113028AEC91E056
:100D600009951092EA010ACF1092EB0134CF10924C
:100D700022021092210288EE93E0A0E0B0E080937E
:100D8000230290932402A0932502B093260224E02C
:100D900031E03093200220931F0225EC30E03093A5
:100DA0002C0220932B0224EC30E030932E0220936F
:100DB0002D0220EC30E03093300220932F0221EC02
:100DC00030E0309332022093310222EC30E0309355
:100DD00034022093330226EC30E030933602209325
:100DE0003502109238021092390210923A02109293
:100DF0003B021092BF021092BE028093C0029093F9
:100E0000C102A093C202B093C30286E191E0909325
:100E1000BD028093BC028BE090E09093210380930D
:100E2000200384EF91E0A0E0B0E080932203909350
:100E30002303A0932403B093250361E08BE00E9479
:100E40000C0161E0809120030E94DE0010921703E4
:100E50001092160388E291E0909315038093140397
:100E60008FE38093180380E180931D0382E08093D9
:100E70001E0310921F0380ED92E09093F70280937F
:100E8000F60284ED92E09093F5028093F4028CECEC
:100E900092E09093F9028093F8021092120310925C
:100EA0000A0310920B0310920C0310920D0380E0C2
:100EB00090E0AFE7B3E480930E0390930F03A09309
:100EC0001003B093110384E690E0A0E0B0E08093BB
:100ED000060390930703A0930803B093090320919E
:100EE000F0023091F10281E090E09093F302809360
:100EF000F2028093130380E090E0A0E0B0E48093DE
:100F0000D8029093D902A093DA02B093DB0240E0BA
:100F100050E060EA70E44093DC025093DD0260939D
:100F2000DE027093DF0240E050E060E87FE3409330
:100F3000E0025093E1026093E2027093E302809337
:100F4000E4029093E502A093E602B093E70280E00A
:100F500090E0A0E0BFE38093E8029093E902A093C1
:100F6000EA02B093EB0280E090E0A0E2B1E480936B
:100F7000EC029093ED02A093EE02B093EF022130C9
:100F8000310561F480E090E0A0E0BFEB8093E802DF
:100F90009093E902A093EA02B093EB022FB7F89482
:100FA0008091C8029091C902A091CA02B091CB026F
:100FB0002FBF409106035091070360910803709181
:100FC0000903841B950BA60BB70B8093FA02909331
:100FD000FB02A093FC02B093FD020895CF93DF9330
:100FE000CDB7DEB7A1970FB6F894DEBF0FBECDBF69
:100FF000789484B5826084BD84B5816084BD85B5F4
:10100000826085BD85B5816085BD80916E008160FF
:1010100080936E00109281008091810082608093A5
:1010200081008091810081608093810080918000A7
:101030008160809380008091B10084608093B100D2
:101040008091B00081608093B00080917A008460CC
:1010500080937A0080917A00826080937A008091F8
:101060007A00816080937A0080917A008068809312
:101070007A001092C100E0912F02F091300282E0DC
:101080008083E0912B02F0912C021082E0912D02DE
:10109000F0912E028FEC808310923702E0913302A0
:1010A000F091340286E08083E0913102F0913202C7
:1010B000808180618083E0913102F09132028081F1
:1010C00088608083E0913102F091320280818068F3
:1010D0008083E0913102F091320280818F7D8083A4
:1010E00080E391E00E94B1048DE391E00E94B1049D
:1010F0001092190210921802109217021092160202
:101100000E94CB0285E991E090931502809314022E
:1011100086E991E0909313028093120210921903D2
:1011200080911E03823018F098E090931903809309
:101130001C0362E370E080E090E00E946201609135
:101140001F0384E193E00E94900368EE73E080E067
:1011500090E00E94620160E384E193E00E947B04DE
:101160000BE416E4C8010197F1F760E384E193E032
:101170000E947B04C8010197F1F760E384E193E0EA
:101180000E947B0483E592E00197F1F760E284E13D
:1011900093E00E947B0460911903606240E084E167
:1011A00093E00E94940484E080931A0340E06CE092
:1011B00084E193E00E94940440E061E084E193E0E4
:1011C0000E9494040BE31FE1C8010197F1F782E04C
:1011D00080931B0340E066E084E193E00E94940466
:1011E00040E062E084E193E00E949404C80101972A
:1011F000F1F788E080931F0360E084E193E00E94B0
:1012000090035E0126E0A20EB11C83E7882E912C8C
:101210009AE0492E512C612C712C8DE391E00E94B3
:10122000B104609122037091230380912403909173
:1012300025030E94620161E0809120030E940C015D
:1012400060E0809120030E94DE0062E170E080E0B7
:1012500090E00E94620161E0809120030E94DE0024
:101260008BE990E00197F1F760E0809120030E9404
:101270000C018FB7F894C090C802D090C902E090DA
:10128000CA02F090CB028FBF809120030E94B5006C
:10129000019709F040C02FB7F8948091C80290914F
:1012A000C902A091CA02B091CB022FBF8C199D092F
:1012B000AE09BF09893E9340A105B10528F32DEF82
:1012C00030E06901330FEE08FF08C701B6010E9444
:1012D000000A9B01AC010E945F0A882309F474C0D4
:1012E00080E491E00E94B1048DE391E00E94B1049A
:1012F00060ED77E080E090E00E94620180E090E0A5
:10130000892B09F48ACF0E940102882309F485CF32
:101310000E94000082CF809120030E94B500892B9B
:1013200071F68BE391E00197F1F7809120030E9421
:10133000B500019721F68BE391E00197F1F7CE011B
:1013400001967C0107E010E0312C809120030E947F
:10135000B500892BD1F3C4010197F1F780912003E7
:101360000E94B5008130910531F4002E01C0880F34
:101370000A94EAF7382A809120030E94B500019769
:10138000D1F30150110908F7F70131927F01FDEF08
:101390003F1609F494CFAE14BF04A1F6298130E0C2
:1013A0006D814A81420F532F511D8B81480F511D72
:1013B0008C81840F952F911D99276817190609F4C0
:1013C00080CF2EEF30E07DCFA701960119A28E01CC
:1013D0000F5D1F4FCA01B901A30192010E94640A67
:1013E000605DF80162938F012115310541055105BA
:1013F00089F7309709F478CFCF0174CFE89409C00A
:1014000097FB3EF490958095709561957F4F8F4F37
:101410009F4F9923A9F0F92F96E9BB279395F6954D
:10142000879577956795B795F111F8CFFAF4BB0FCB
:1014300011F460FF1BC06F5F7F4F8F4F9F4F16C02F
:10144000882311F096E911C0772321F09EE8872FB9
:10145000762F05C0662371F096E8862F70E060E075
:101460002AF09A95660F771F881FDAF7880F9695EE
:10147000879597F90895990F0008550FAA0BE0E892
:10148000FEEF16161706E807F907C0F01216130646
:10149000E407F50798F0621B730B840B950B39F486
:1014A0000A2661F0232B242B252B21F408950A26EC
:1014B00009F4A140A6958FEF811D811D08950E941A
:1014C0003B0A880B990B0895A1E21A2EAA1BBB1B9D
:1014D000FD010DC0AA1FBB1FEE1FFF1FA217B30700
:1014E000E407F50720F0A21BB30BE40BF50B661F16
:1014F000771F881F991F1A9469F7609570958095DA
:1015000090959B01AC01BD01CF010895EE0FFF1F27
:101510000590F491E02D0994F894FFCF00000000AD
:1015200037029701C4018402F501D301E7010000ED
:1015300000006103340378040A032D031A030B032C
:1015400000000000AB0497017804770448656C6CD8
:101550006F20576F726C6421000D0A004661696C40
:10156000656420746F20726561642066726F6D20FF
:0C1570004448542073656E736F722100B4
:107E0000112484B714BE81FFF0D085E080938100F7
:107E100082E08093C00088E18093C10086E0809377
:107E2000C20080E18093C4008EE0C9D0259A86E02C
:107E300020E33CEF91E0309385002093840096BBD3
:107E4000B09BFECF1D9AA8958150A9F7CC24DD24C4
:107E500088248394B5E0AB2EA1E19A2EF3E0BF2EE7
:107E6000A2D0813461F49FD0082FAFD0023811F036
:107E7000013811F484E001C083E08DD089C08234E0
:107E800011F484E103C0853419F485E0A6D080C0E4
:107E9000853579F488D0E82EFF2485D0082F10E0AE
:107EA000102F00270E291F29000F111F8ED06801E7
:107EB0006FC0863521F484E090D080E0DECF843638
:107EC00009F040C070D06FD0082F6DD080E0C81688
:107ED00080E7D80618F4F601B7BEE895C0E0D1E017
:107EE00062D089930C17E1F7F0E0CF16F0E7DF06D8
:107EF00018F0F601B7BEE89568D007B600FCFDCFD4
:107F0000A601A0E0B1E02C9130E011968C91119780
:107F100090E0982F8827822B932B1296FA010C0160
:107F200087BEE89511244E5F5F4FF1E0A038BF0790
:107F300051F7F601A7BEE89507B600FCFDCF97BE46
:107F4000E89526C08437B1F42ED02DD0F82E2BD052
:107F50003CD0F601EF2C8F010F5F1F4F84911BD097
:107F6000EA94F801C1F70894C11CD11CFA94CF0C13
:107F7000D11C0EC0853739F428D08EE10CD085E9AC
:107F80000AD08FE07ACF813511F488E018D01DD067
:107F900080E101D065CF982F8091C00085FFFCCF94
:107FA0009093C60008958091C00087FFFCCF809118
:107FB000C00084FD01C0A8958091C6000895E0E648
:107FC000F0E098E1908380830895EDDF803219F02E
:107FD00088E0F5DFFFCF84E1DECF1F93182FE3DFCA
:107FE0001150E9F7F2DF1F91089580E0E8DFEE27F6
:047FF000FF270994CA
:027FFE00040479
:00000001FF
